:020000040800F2
:10000000D81D0020E94A00088D4900088F490008E2
:1000100000000000000000000000000000000000E0
:100020000000000000000000000000000131000896
:100030000000000000000000C3300008D12B0008C1
:100040006B23000803260008232B00084F33000809
:100050001F390008EF41000853450008AB45000870
:10006000BF48000853490008F7490008074A00083C
:100070006B4A00089B4A00082F4B0008874B00087A
:10008000894B000891490008000000008B4B0008D4
:100090008D4B00088F4B0008914B0008934B0008D4
:1000A000954B0008974B0008994B00089B490008A6
:1000B0009B4B0008000000009D4B000838B5040071
:1000C00001D1012032BD250078356868002803D1B0
:1000D0002870200000F0E4FC24206860206801689B
:1000E000012291430160606A002802D0200000F0E4
:1000F0003FFA200000F0B8F9012811D020684168CB
:10010000084A0A404260206881682A22914381603F
:100110002068016801220A430260200000F08CFA86
:1001200032BD0000FFB7FFFF70B58023C358202BFE
:1001300025D100290BD0130009D0836880246401E5
:10014000A34206D10369002B03D1CB0701D50120BF
:1001500070BD0023036603685B681B020CD5EFF3D8
:100160001083012484F31088046825688026F6042F
:100170002E43266083F3108800F017FB70BD022029
:1001800070BDFEB504002368D869194609689A68ED
:100190002500583520260E40009620260640019660
:1001A0000026AC4F07400BD1019F002F0CD0009FC1
:1001B000002F09D02969002901D020008847F7BD08
:1001C000D70702D4A44F0F4078D0C70706D5CF0574
:1001D00004D501271F62EB6A1F43EF62830708D52E
:1001E000D30706D5022327683B62EB6A04271F4327
:1001F000EF620423184207D0D70705D527683B6272
:10020000EB6A02271F43EF620823184209D0009FC0
:10021000002F01D1D20704D522681362EA6A134382
:10022000EB6280221201104007D0480105D52068FA
:100230000262E86A20210143E962E86A002833D0BB
:100240000198002807D00098002804D029690029C7
:1002500001D020008847E86A402721688968394032
:1002600002D12821014024D0200000F005FB2068A5
:100270008068074019D0EFF31080012181F31088C6
:1002800021688A6840239A438A6080F31088E8696D
:1002900000280AD071494163E86900F062FC002837
:1002A00002D0E869416B8847F7BD200000F07DFC73
:1002B000F7BD200000F079FCEE62F7BDAF68012FBA
:1002C00000D097E01027384200D0394200D191E0A9
:1002D0001F621020C0430121C94322689268520660
:1002E0004BD5EA6913685B689BB2002BE5D05827B1
:1002F000E75BBB42E1DA6B809269202A35D0EFF3ED
:1003000010820092012282F3108822681368544FF1
:100310001F401760009A82F31088EFF310820123C8
:1003200083F3108823689F683940996082F31088AE
:10033000EFF31081012282F310882268936840272E
:10034000BB43936081F310882021A962AE60EFF374
:100350001081012282F3108822681368184010600F
:1003600081F31088E86900F0DBFB0220E860582088
:10037000205A6988411A89B238E05822A25A6B88FB
:10038000D21A6B461A806A88002A60D06A461288A0
:10039000002A5CD0EFF310820192012282F31088D0
:1003A000226813682F4F1F401760019A82F310884C
:1003B000EFF31082012383F3108823689F6839408C
:1003C000996082F310882021A962AE602E61EFF35C
:1003D0001081012282F3108822681368184010608F
:1003E00081F310880220E86068460188200000F050
:1003F000DDFBF7BD80277F03384206D0520204D5CB
:100400001F62200000F0D3FBF7BD8022104207D00E
:100410000A4005D06969002919D020008847F7BD36
:100420004022104013D00A4011D0EFF31080012178
:1004300081F3108821680A6840239A430A6080F398
:100440001088202068626E61200000F0B1FBF7BDCB
:10045000000000000F08000020010004E908000867
:10046000FFFEFFFFDFFEFFFFF8B5050000260024BA
:10047000286801689C4A0A40A96811432A690A430E
:1004800069691143EA690A4302604168974A0A4070
:10049000E968114341608168954A0A40A96911439E
:1004A0002A6A0A4382601022924988420FD19248F8
:1004B00000688007800F0DD0022806D003D30328E0
:1004C00009D1022207E0042205E0082203E08B495B
:1004D000884200D100228A4F8A4880210902EB69B4
:1004E0008B4221D1002A06D0022A18D0042A18D023
:1004F000082A04D037E000F00AFE010034D06A6810
:10050000480051084018110000F05EFE010010394B
:10051000B94228D207400007400F38431BE00100D2
:10052000EDE700F0D7FDE8E7002A06D0022A08D060
:10053000042A13D0082A14D015E000F0E8FD0028A2
:1005400012D069684A08801800F03EFE0100103998
:10055000B94208D280B22968C86005E000F0BAFD4F
:10056000EDE70800EDE70124AE66EE662000F2BD7F
:100570002421415C090706D501684A68B14B134044
:10058000426B1A434A602421415CC90706D50168C1
:100590004A68AD4B1340826A1A434A602421415C89
:1005A000890706D501684A68A84B1340C26A1A43F6
:1005B0004A602421415C490706D501684A68A44B7A
:1005C0001340026B1A434A602421415CC90606D5D8
:1005D00001688A689F4B1340826B1A438A6024210A
:1005E000415C890606D501688A689B4B1340C26B43
:1005F0001A438A602421415C490611D501684A6882
:10060000964B1340026C1A434A60026C80235B03D2
:100610009A4205D14A68954B1340426C1A434A608E
:100620002421415C090606D501684A68904B1340B5
:10063000806C184348607047FEB506003700783775
:100640000024FC6000F0DEFD019020253068006889
:10065000000717D587480090019B0022290430002D
:1006600000F052F800280DD0EFF31080012181F343
:10067000108831680A6880239A430A6080F31088E2
:100680007D6026E030680068400725D579480090F5
:10069000019B00226904300000F036F800281BD0CE
:1006A000EFF31080012181F3108831680A688A4BCA
:1006B00013400B6080F31088EFF31080012181F369
:1006C000108831688A6801239A438A6080F3108811
:1006D000BD603C700320FEBD7D60BD603466746605
:1006E0003C700020FEBD0000F369FFFFFFCFFFFF5D
:1006F000FFF4FFFF0038014030100240004400408A
:10070000F0FF000000127A00FEB580273F010824A8
:100710000025060001916846027002933068C069A6
:10072000019901400198814201D1012000E000209F
:1007300069460978884236D108980021C943884221
:10074000ECD000F05FFD0299401A0899814201D374
:10075000002901D10320FEBD306800684007DDD5C7
:1007600001988028DAD04028D8D03068C06920406D
:10077000306803D1C0693840D0D009E0046230004D
:1007800000F07AF830007830C46005700120FEBDBA
:1007900030680762300000F06FF8300078302021B8
:1007A000C1600570D6E70020FEBD70B5416501004F
:1007B00058310A804A8000230B618468FF2580221B
:1007C0005201944204D10469002C06D1434C07E045
:1007D000002C07D10469002C01D18D8003E07F2417
:1007E0008C8000E08B80CB6222238B62EFF310833E
:1007F000012484F310880468A56801262E43A660AE
:1008000083F31088836893420DD10269002A0AD1CC
:10081000334A0A61EFF31081012282F310880068E5
:10082000026820231CE02F4A0A6101690029F1D0E7
:10083000EFF31081012282F3108800680268902390
:100840005B00EFE7FF7FFFFFFFFFFDFFFFFFFEFF06
:10085000FFFFFBFFFFEFFFFFFFDFFFFFFFFFEFFFEC
:100860001343036081F31088002070BDFFFF9FFFDA
:10087000FFFFF7FFFFFFFF0110B5EFF3108101222B
:1008800082F3108802681368134C1C40146081F3D3
:100890001088EFF31081012282F3108802689368B8
:1008A0000124A343936081F31088016E01290BD1C9
:1008B000EFF31081012282F310880268136810247C
:1008C000A343136081F310882021802281500021EE
:1008D0000166816610BD0000DFFEFFFFFF01000022
:1008E00099090008FD08000880B5406A01005231EE
:1008F00000220A810A8000F058F901BD70B501009C
:10090000583102688B6A222B41D1928C8B8813401C
:10091000426D1370426D521C42654A88521E4A80D5
:100920004A88002A37D1EFF31082012383F310881D
:1009300003681C683F4D25401D6082F31088EFF36B
:100940001082012383F3108803689C680125AC435F
:100950009C6082F3108820228A6200220A61CA60A9
:1009600003685B681B020BD5EFF31083012484F34B
:10097000108804682568304E2E40266083F3108866
:100980008B68012B00D159E000F04BFC70BD9069E1
:1009900008210143916170BD70B5010058310268B2
:1009A0008B6A222B41D1928C8B881340426D13802D
:1009B000426D921C42654A88521E4A804A88002A2B
:1009C00037D1EFF31082012383F3108803681C688A
:1009D000184D25401D6082F31088EFF3108201232B
:1009E00083F3108803689C680125AC439C6082F304
:1009F000108820228A6200220A61CA6003685B684C
:100A00001B020BD5EFF31083012484F310880468D4
:100A10002568094E2E40266083F310888B68012BD1
:100A200000D10BE000F0FDFB70BD9069082101438F
:100A3000916170BDDFFEFFFFFFFFFFFB8A60EFF3F8
:100A40001081012282F31088026813681024A343E6
:100A5000136081F3108801681022CB69134000D025
:100A60000A625821415A00F0A1F870BD80B50120FA
:100A700028490A6802430A600A68104000900098FA
:100A8000802040054A6802434A6049680840009057
:100A90000098002203210120C04300F0A2FC01BD08
:100AA00010B586B004001422002101A800F0ACFCAF
:100AB0002068194988422AD118488021C901426812
:100AC0000A434260426811400091009980218902E6
:100AD00002680A4302600068014000910098C0204B
:100AE000C000019002200290002003900320049097
:100AF0000120059001A99020C00500F08FFC002284
:100B000003211B2000F06DFC1B2000F06EFC06B0E2
:100B100010BD0000181002400038014014100240BF
:100B200010B500212122825C022A05D004228263B2
:100B300020228154012010BD026813680E24A343B3
:100B40001360026813680124A34313600122036C3D
:100B50009C40C36B5C602123C2542022815400203E
:100B600010BD70B50022002401212123C35C022B9B
:100B700003D004228263012415E003681D680E2659
:100B8000B5431D6003681D688D431D60036C01251E
:100B90009D40C36B5D602123C15420214254416BB1
:100BA000002900D08847200070BD7047704770470B
:100BB0002049884200D0704780B5002000906946E7
:100BC0001D48806801F034F80098002803D0802088
:100BD00040051A49086001BD00001CB504006068AA
:100BE0002168814223D0401A8021490288421CD2C8
:100BF00013490C2001F08AF8002802D0210001F0EE
:100C000095F80090002810D00023002269460A4879
:100C1000006801F035F9012809D00098002804D0B7
:100C200001F04AFB0C2101F04DFB002016BD012014
:100C300016BD0000C41600200018002004ED00E0DE
:100C4000A04B0008FEB5060019D0AD4C3078C007A7
:100C500017D58027BF0260680C210140042909D004
:100C600060680C210140082941D16068790808407A
:100C700088423CD12068074003D07068002800D12A
:100C80009BE1307880071AD5F827FF4360680C2174
:100C9000014007D060680C21014008295AD16068E2
:100CA000C00357D42068800703D5F068012800D01E
:100CB00083E1206807403069C00038432060307805
:100CC000000778D50227F0690028606A64D0012106
:100CD0000143616200F096FA0500606A38406AD10B
:100CE00000F090FA401B0228F7D90320FEBD73687C
:100CF0007908012B09D0B348B34A002B09D0052B42
:100D000007D120688A0002432260206801432160E5
:100D100005E021680A402260216808402060706870
:100D200000280BD000F06EFA050020683840A8D1EA
:100D300000F068FA401B6528F7D3D6E700F062FAA6
:100D40000500206838409CD000F05CFA401B652804
:100D5000F7D3CAE7F068002820680ED001210143CC
:100D6000216000F04FFA050020688007A1D400F050
:100D700049FA401B0228F7D9B7E7012188432060D0
:100D800000F040FA05002068800798D500F03AFA94
:100D9000401B0228F7D9A8E701218843606200F0D0
:100DA00031FA0500606A384005D000F02BFA401B8C
:100DB0000228F7D999E704273068384062D000202C
:100DC0000190B806E169014008D1E1690143E161A0
:100DD000E169084000900098012001907B4800687C
:100DE000C00512D479480068A10D0143774801601D
:100DF00000F008FA050075480068C00505D400F049
:100E000001FA401B6528F6D36FE7B068012808D0C7
:100E1000002801D1206A09E00528206A06D138435C
:100E20002062206A01210143216205E001218843FB
:100E30002062206AB8432062A4480090B06800286D
:100E40000CD000F0DFF90500206A800713D400F011
:100E5000D9F9401B00998842F6D346E700F0D2F951
:100E60000500206A800706D500F0CCF9401B0099E8
:100E70008842F6D339E70198002803D0E069944905
:100E80000140E1613078C0061DD57069F825ED4359
:100E9000012837D1606B07436763606B0121014311
:100EA000616300F0AFF90700606B800705D400F0C4
:100EB000A9F9C01B0228F7D917E7606B0540B06994
:100EC000C00028436063306A002878D061680C2233
:100ED0000A40082A5CD08027BF0492490228206873
:100EE00048D10140216000F08DF9050020683840AC
:100EF00022D000F087F9401B0228F7D9F5E600BFA1
:100F0000001002400421C9438842606B02D10140B5
:100F10006163D2E707436763606B012188436063C5
:100F200000F070F90500606B8007CCD500F06AF91D
:100F3000401B0228F7D9D8E6E06A0F218843F16AFE
:100F40000143E162606884490140B06A0843716A04
:100F500001436160206879080143216000F052F983
:100F60000500206838402AD100F04CF9401B0228C7
:100F7000F7D9BAE60140216000F044F90500206885
:100F800038401CD000F03EF9401B0228F7D9ACE6EF
:100F9000012812D06068E16A802252020240736A1E
:100FA0009A420AD10907090FF26A914205D1F0214C
:100FB00089030140B06A814201D00120FEBD0020BA
:100FC000FEBD0000FFFFFBFFFFFFFEFF00700040C3
:100FD000F8B5040060D0009160480068C107C90FEF
:100FE000009881420CD25D48016801229143009A29
:100FF0000A4302600068C107C90F009881424BD1C3
:101000002168574D022001420CD0490704D5696878
:10101000E022D2000A436A606968F0229143A26824
:101020000A436A6001272168394025D06168012997
:1010300002D12868800303E0022903D128688001D7
:1010400003D429E02A68104026D068680322904320
:101050000143696000F0D6F8060068680C21014081
:1010600060688000814207D000F0CCF8801B1749EF
:101070008842F2D30320F2BD3848009902683A4012
:1010800091420BD20168B943009A0A43026000689A
:1010900007400098874201D00120F2BD2078400728
:1010A00005D568682F490140E0680843686000F092
:1010B00011F82D496A681206120F895CC8402B4945
:1010C0000860032001F002F90020F2BD891300003E
:1010D000FFFFFFEF264B196826480C220A40082A1A
:1010E00000D0704730B50F2225A48D0C1540645DEB
:1010F0009B6AC90307D500BF25A11A40895C00F08F
:1011000063F8604330BD20001B49484330BD174899
:1011100000681A49164A12685205520F895CC84085
:1011200070470000FFFFFFFE10B507220260104A63
:1011300013689B079B0F43601368F0241C40846076
:101140001268E023DB001340C36004480068C20754
:10115000D20F0A6010BD0000FFFFC2FF0020024056
:1011600000100240FFF8FFFFA04A00081000002016
:101170000410024000127A0000093D00784B00087C
:1011800002030405060708090A0B0C0D0E0F1010C8
:101190000102030405060708090A0B0C0D0E0F10C7
:1011A000CA0F00D0494203105A400DD004B500D3F5
:1011B000404200F009F8009AD20701D34942124296
:1011C00000D5404204BD0000094214D088420FD32C
:1011D0000122030C01D100041204002300185B411A
:1011E0008B4200D35B1A5241F8D3190010007047AC
:1011F00001000020704708B501F0B6F808BD0021D5
:10120000C162704701484068704700BF0400002079
:1012100080B55B4801F0AAF85A4A5B4901F0D3F95E
:1012200001BD38B505005948854218D1002000900D
:10123000574C2068002805D000236A4621000C3155
:1012400000F0B2FE012221000C312800FEF76CFFF5
:101250000098002803D0802040054E49086031BD29
:10126000F8B59EB007A801F0B5F914AF0AAC484D27
:1012700030E00C282BD1002929D00AAA14A801F0AB
:10128000B9F9162038706078787014A904A801F0B4
:10129000B9F904A901A801F079F8032601A8FFF71C
:1012A0009CFC0A2000F084FA761EF7D101A801F018
:1012B00003F804A801F000F814A801F08FFA06E082
:1012C000162801D02128D4D10AA801F091FA0AA841
:1012D00001F084FA0022D2436946286800F0A8FE93
:1012E0000128F7D107AA684601782800103001F0DC
:1012F000A8F80028EED007A90AA801F0D5F9A96836
:1013000020780B28DCD10029E1D00AAA14A801F02A
:1013100071F914A904A801F075F904A901A801F054
:1013200035F801A8FFF759FCC0E700001CB5184CC0
:10133000A0602068002809D100220121202000F0AF
:101340006FFD2060002801D172B6FEE760680028BA
:101350000ED1201D0190022000900023402200BFEA
:101360000EA10D4800F056F9012801D072B6FEE733
:10137000012221000C310548FEF7D6FE13BD000006
:10138000F017002024180020554B0008C416002038
:10139000E017002004ED00E0611200085250435FA6
:1013A0004C494E4B0000000010B5C20018231340FA
:1013B000FF249C40E2438907090E9940030004D4AE
:1013C0000E489B089B00C01806E00D4B0007000F5D
:1013D000083880088000181803681A40114301601B
:1013E00010BD80B5FFF7E0FF01BD010005D401216C
:1013F000C006C00E814003480160704700E400E071
:101400001CED00E000E100E010B504000800110050
:101410000200200001F074FA200010BDFFB5002288
:101420000F2302932CE0052402E0614DA842FAD17B
:101430006D462D78AC403443019D2C605D4CA66810
:10144000DC4326404D68ED0200D51E43594DAE6089
:10145000EE6826404F68BF0200D51E43EE606E68FE
:1014600026404F68BF0300D51E436E602E6834408F
:101470004E68F60302D526001C0034432C60521C33
:101480000B681C00D44000D191E00124944023401B
:10149000F5D055000327AF40FE4301964E68B707CD
:1014A000BF0F012F03D0B607B60F022E0ED18768EB
:1014B000019E3E40CF68AF40374387604668A643F1
:1014C0004C68E706FF0F97403743476094006E462D
:1014D00074700C79A407A40F032C26D0C468019E55
:1014E00026408C68AC403443C4600C79A407A40F38
:1014F000022C1AD1D408A4000419266A03966E4659
:1015000077781C263E406F463E70039EB446029F8D
:101510006E463678B7406646BE43B4460F696E469F
:101520003678B74066463743276207680324019E32
:101530003E404F682740BC462F006546BD403543BE
:1015400005604D6826042E4099D001251A4E366854
:101550002E43194F3E603E4636682E400196019E4E
:10156000164E9708BF00F6190196019E366803963D
:101570006E4677780C263E406F463E70039EB4461A
:10158000029F6E463678B7406646BE439027FF05F9
:10159000B84201D100244BE7094FB84201D10124E0
:1015A00046E7084DA84200D03FE7022440E7FFBDD0
:1015B000000C0048000401401810024008000140DF
:1015C000000400480008004878B585B00B9D002D48
:1015D00001D172B6FEE70C9C002C01D172B6FEE779
:1015E0005C260096009E5C2E01D072B6FEE7256355
:1015F00002255926A55500250395029404AD0195B1
:101600000A9D009500F036F8200000F07AF8049862
:1016100006B070BDF6B585B007000C001D00900047
:1016200001F074F9060021D05C2001F06FF90490FC
:10163000002818D02B0021003800049A16630022DD
:10164000049C592562550392049A02920D9A0192C4
:101650000C9A00926A46128B00F00CF8049800F085
:1016600050F8012004E0300001F0CCF90020C04324
:1016700007B0F0BDF9B581B00E0015000A9CA52297
:10168000A900206B01F03CF9206BA90047183F1F0F
:10169000072087437807002500963426009909180B
:1016A0000A7823189A550978002902D0401C10287E
:1016B000F4D3089E43216554372E00D93726E662BD
:1016C000E66420004C304560201D01F0EEF920005A
:1016D000183001F0EAF924613820801BA0616462AF
:1016E00020004C30856020004C300573029A01992F
:1016F000380001F017FA20600998002800D0046033
:10170000F7BDF8B5040001F04BFA344DE86C401C0D
:10171000E864334FA86A002825D1AC62E86C012840
:101720002AD1002614207043381801F0AFF9761C36
:10173000382EF7D32800743001F0A8F92E0088362F
:10174000300001F0A3F9280001F0A0F928001430BE
:1017500001F09CF92800383001F098F92800743025
:10176000E8622E6308E0A86D002805D1E06AA96A46
:10177000C96A884200D3AC62A86E401C6064E26A09
:10178000696D914200D26A65A866211D142042430A
:10179000B81801F08DF901F00FFAA86D002806D0F5
:1017A000A86AC06AE16A884201D201F0F3F9F1BD8A
:1017B00080B500280FD009490A6F002A01D072B6FF
:1017C000FEE70A6F521C0A67002100F070FA00F071
:1017D0003FF8002801D101F0DDF901BD28160020F5
:1017E000AC07002010B586B000240594049403AA29
:1017F00004A905A801F0B4FA059802900498019094
:1018000000940023039A00BF0CA18348FFF7DCFE7D
:1018100000280DD001F0BAFA0021C943012809D1EE
:1018200072B63548C16601218165046501F092F9FF
:1018300006B010BD8842FBD172B6FEE749444C4564
:10184000000000002C48016F491C01677047000030
:10185000F8B5002700260097264C206F002801D1FC
:1018600072B6FEE701F09CF9206F401E2067206FE2
:10187000002837D1E06C00281BD133E0E068C6684F
:101880003000183001F03AF9301D01F037F9F06AF4
:10189000616D814200D26065311D184A142358439E
:1018A000101801F005F9F06AA16AC96A884200D3EC
:1018B0002566012520680028E0D1002E01D000F027
:1018C0006AF9E66D002E07D000F01AF8002800D063
:1018D0002566761EF8D1E765206E002802D00095B7
:1018E00001F058F901F068F90098F2BD0248006D66
:1018F000704700002816002028160020AC070020A2
:10190000F8B50026884C206F002849D1276D7F1C30
:1019100027650ED1E06A0068002801D072B6FEE7A4
:10192000E06A216BE1622063606E401C606600F03B
:1019300032F9E06E874229D321E0E06AC068C568C9
:101940006868874221D3281D01F0D8F8A86A0028CA
:1019500003D02800183001F0D1F8E86A616D8142A7
:1019600000D26065291D814A14235843101801F0E4
:101970009FF8E86AA16AC96A884200D30126E06A32
:1019800000680028D9D10020C043E066A06A7749EA
:10199000C06A142250430858022804D3012602E0EA
:1019A000E06D401CE065206E002800D0012630006C
:1019B000F2BD000010B55C48016F002902D0012182
:1019C000016610BD0166416D00E0491E674A14239F
:1019D0004B43D2181368002B03D10029F5D172B6FE
:1019E000FEE753685B68536014000834A34201D1DA
:1019F0005B6853605268D2688262416510BD000026
:101A000010B50C00002801D172B6FEE74649896A7C
:101A1000183101F059F801E02D1B000801212000C8
:101A200000F045F910BD000038B50C00002801D1C8
:101A300072B6FEE715003C49896A183101F038F8A2
:101A40002000002D01D00020C043290000F02FF914
:101A500031BD000038B5C068C568002D01D172B62F
:101A6000FEE72800183001F049F82F4C206F0028BD
:101A70000DD1281D01F042F8E86A616D814200D263
:101A80006065291D394A14235843101802E02900C3
:101A90001831200001F00CF8A06AC06AE96A884297
:101AA00002D20120206632BD002032BD1E494A6E9E
:101AB0000260096D41607047FEB50500002D01D13F
:101AC00072B6FEE70E00002E01D172B6FEE701F0FD
:101AD00067F81549086D0290686801900298019AAC
:101AE000801A0090326800240020C043824213D044
:101AF0004B6E2F68BB4203D0029B019FBB420AD2B0
:101B0000009B934206D2D01A3060486E2860086D60
:101B1000686001E03460012401F04EF82000FEBD51
:101B200001200149086670472816002070B50F4C47
:101B30003D4D11E001F034F8286AC668301D00F010
:101B4000DDFFE86C401EE864686B401E686301F0CE
:101B500033F8300000F00CF8686B0028EAD12068F8
:101B60000228F9D301F016F8F6E70000AC070020D0
:101B700010B504005920205C002806D1206B00F02D
:101B800041FF200000F03EFF10BD0128F9D00228DF
:101B9000FAD072B6FEE72448C16A0968002902D16A
:101BA0000021C94303E0C16AC968C9684968C166C0
:101BB00070471D48816D002901D101207047006FD9
:101BC000002801D1022070470020704738B504007A
:101BD0000020002C27D0144DA96A8C4201D072B687
:101BE000FEE7216D002901D172B6FEE7491E21658D
:101BF000E26AE36C9A4216D0002914D1201D00F04D
:101C00007DFFE06CE0623821081AA061E06A696D2E
:101C1000814200D26865211D044A142358431018DC
:101C200000F046FF012032BD28160020AC0700203E
:101C3000F8B504000E00002C01D172B6FEE701F0E9
:101C400071FA07005820205C02215822A154616DCE
:101C5000491C6165012826D1A06A002801D072B60E
:101C6000FEE7294D286F00280DD1201D00F046FF0A
:101C7000E06A696D814200D26865211D214A142302
:101C80005843101802E021001831280000F010FF1E
:101C9000A86AC06AE16A884205D20120002E01D0FC
:101CA000306000E02866380001F040FAF1BDF8B578
:101CB00004000E00144D2F6DA86A001D00F01EFFD9
:101CC0000020C043844208D1002E06D0A86A011D1E
:101CD0002800383000F0ECFEF1BD3C19A86A4460E1
:101CE000BC42A86A04D2011D286B00F0EDFEF1BDD4
:101CF000011DE86A00F0E8FEE86E844200D2EC665E
:101D0000F1BD0000AC0700202816002010B504002B
:101D100000E08047200001F00FFA002803D10248BC
:101D200000680028F5D110BD281800207CB50400FB
:101D30000D00694601F0A0FA68682968411A200080
:101D400001F0A6FA002809D0296826686868451AB3
:101D50002A00300001F0AEFA70196060200076BDF4
:101D600038B505000C00002D01D172B6FEE700F079
:101D700017FF2868E96B2A6C5143401868600020FF
:101D8000A8632868A8602868E96B491E2A6C51433B
:101D90004018E860280044300021C94301704170B8
:101DA000002C0BD12869002810D028001030FFF734
:101DB00051FE00280AD000F0EDFE07E028001030A8
:101DC00000F064FE2800243000F060FE00F0F4FE15
:101DD000012032BD7CB5002801D172B6FEE71C009F
:101DE000002C01D172B6FEE7002A03D0002903D1EE
:101DF00072B6FEE700290FD150230093009B502BB1
:101E00000CD1002C06D0069B01254626A555009432
:101E100000F024F8200076BD72B6FEE772B6FEE749
:101E2000F8B504001600002C01D172B6FEE70F00D1
:101E300001D1502001E07843503000F067FD0500EB
:101E40000AD0330000204621685400952A00503201
:101E50003900200000F002F82800F2BD38B5049CDB
:101E6000002901D1246000E022601D00E0632164AC
:101E700001212000FFF774FF4C20255431BD0000E4
:101E8000BCB584B004000025002C01D172B6FEE779
:101E90000391002902D1206C00280ED11F00022FCF
:101EA00002D1E06B01280AD1FFF783FE002808D198
:101EB0000498002805D072B6FEE772B6FEE772B647
:101EC000FEE7029537E00498002851D001250298DA
:101ED000002803D16846FFF7E9FD029500F06CFE8B
:101EE000FFF7B0FC00F05CFE200044300021C94345
:101EF0004422A2568A4201D1002202700122825657
:101F00008A4201D10021417000F056FE04A96846C2
:101F1000FFF7D2FD002840D100F042FEA06BE16B3C
:101F2000884229D100F048FE002D27D1200000F082
:101F300050F9FFF78DFC00F033FEA06BE16B884297
:101F400001D3022FBFD13A000399200000F0F6F828
:101F5000616A002903D020002430FFF77BFD0028B0
:101F600001D000F017FE00F027FE012006B0B0BD42
:101F700000F022FE0020F9E70025D3E704992000B5
:101F80001030FFF73DFD200000F023F9FFF760FC63
:101F90000028D0D100F0FEFDCDE7200000F019F9B7
:101FA000FFF756FCE6E70000FEB504001700002C22
:101FB00001D172B6FEE70091002902D1206C002801
:101FC00027D11E00022E02D1E06B012823D101F09F
:101FD000A9F80190A06BE16B884201D3022E20D1B9
:101FE0004520255632000099200000F0A7F8012670
:101FF0000020C043854210D1606A002812D0200022
:102000002430FFF727FD00280CD0002F0AD03E60B7
:1020100008E072B6FEE772B6FEE76D1C4520255457
:1020200000E00026019800BF01F080F83000FEBDFE
:10203000BFB504000025002C01D172B6FEE70F00E9
:1020400002D1206C002808D1FFF7B3FD00280BD186
:102050000298002808D072B6FEE772B6FEE72000AC
:1020600000F0B7F8FFF7F4FB00F09AFDA06B002832
:102070003AD1029800284ED0002D03D16846FFF7D0
:1020800015FD012500F098FDFFF7DCFB00F088FD51
:10209000200044300021C9434422A2568A4201D183
:1020A00000220270012282568A4201D10021417031
:1020B00000F082FD02A96846FFF7FEFC00282ED141
:1020C000200000F0BBF80028C9D00299200024307D
:1020D000FFF796FC200000F07CF8FFF7B9FB002822
:1020E000C2D100F057FDBFE705003900200000F025
:1020F0005DF86D1EA5632069002807D02000103010
:10210000FFF7A8FC002801D000F044FD00F054FDCA
:10211000012004B0B0BD00F04FFD0020F9E7200021
:1021200000F057F8FFF794FB200000F087F8002834
:102130009AD0F2E700F040FD200010BDF8B5040091
:10214000100000260027A56B226C002A08D1206809
:10215000002827D16068FFF739FD0700666021E09D
:1021600006000CD1A06801F0CFF8A068216C4018DF
:10217000A0606168884215D32068A06012E0E06822
:1021800001F0C2F8216C4842E1680918E160226858
:10219000914202D261680818E060022E02D1002D3F
:1021A00000D06D1E6D1CA5633800F2BD0B00026CE3
:1021B000002A00D1704710B5C1688918C160446811
:1021C000A14201D30168C160C168180001F09CF808
:1021D00010BDF8B5050000F0E3FC2F0044370120E6
:1021E0003C5608E028002430FFF734FC002801D0DA
:1021F000FFF796FC641E60B2012802DB686A0028C3
:10220000F0D10024E4437C7000F0D6FC00F0C8FC60
:1022100044202E5608E028001030FFF71BFC002851
:1022200001D0FFF77DFC761E70B2012802DB286921
:102230000028F0D13C7000F0BFFCF1BD10B50400E7
:1022400000F0AEFCA06B441EA441E40F72E710B591
:102250000022064BD4001B191C68002C03D0521C12
:10226000082AF6D310BD1960586010BDA0170020D1
:1022700070B504000D00160000F092FC0020002153
:10228000C9434422A2568A4201D14423E054452244
:10229000A2568A4201D14521605400F08DFCA06B0A
:1022A000002805D13200290020002430FFF7BCFBB4
:1022B0002000FFF78EFF70BD10B5040001F031F86B
:1022C000200010BD80B501F03BF801BD70B586B0AF
:1022D000060010201E490A6802430A600968084087
:1022E0000090009801A902A8FEF71EFF059800289B
:1022F00002D1FEF70CFF02E0FEF709FF4000154D8A
:10230000154929601549E9601549FEF75DFF401E32
:10231000686000202861A860A861280001F018F812
:10232000040012D1280001F022F804000DD1112080
:10233000FFF75BF8042E07D2002231001120FFF7CF
:1023400050F80848066000E00124200006B070BD87
:102350001C1002405817002000100040E703000046
:1023600040420F000C0000207047FEE710B504004B
:1023700000F030F90020E060200000F002F82000BA
:1023800010BD016841600021C16070477FB5040045
:102390000D0000F01FF968682968411A891DA068BE
:1023A0002268801A884202D2200001F023F900BF7F
:1023B00065A1200001F03AF968682968461A694663
:1023C0000E70200001F05AF93004000E69460870C2
:1023D000200001F053F902212068401C01F076F939
:1023E0006946087101A9200001F020F957A12000D9
:1023F00001F01CF9200001F082F96B682A6821685D
:10240000411A039101A9491C6E460D7835700100EF
:10241000200001F076F920680290039902A801F0EB
:10242000C2F920686168091A01F050F9694608701C
:10243000200001F0FBF800BF45A1200001F0F6F8F4
:102440007FBDF2B58CB0040016000CA901F0EEF8C7
:1024500020686168091A012903D10178FA2914D08A
:1024600010E0052911D10178FA290ED1417882783E
:1024700015020D43C7780221401C01F027F987425D
:1024800002D0206860605BE0E560E168002957D019
:10249000C91D20686268121A8A4251D3002541186A
:1024A000491E0978FE2902D06060E56048E002A874
:1024B00000F090F801F023F9070020680B902068E5
:1024C0000990052109A801F06EF90A90E1680AA8AF
:1024D00001F069F9089005210BA801F064F9079053
:1024E0000298381A069001A86A4601781170089B74
:1024F000079A390002A801F059F902980090059056
:10250000069905A801F04FF9E1682068421857794B
:10251000491D01F0DBF8874206D020686060E56065
:1025200002A8FFF7C9FE0BE0300002A901F090F904
:1025300020686060E56002A8FFF7BEFE012000E0B1
:1025400000200DB0F0BD0000FA000000FB0000000C
:10255000FE00F8B500900C000CD00446002C09D009
:10256000002B07D00D0017001E002000A847E4191B
:10257000761EFAD10098F2BDFEB5089F00903C008F
:102580000FD000280DD0002B0BD01E0005000C0032
:10259000019221002800B84701982D182418761EB2
:1025A000F7D1009803B0F0BDF8B55343C6185742B1
:1025B00004000D00B44203D2F6193000A847F9E731
:1025C000083C2000F2BD80B503000800190001F0AE
:1025D00059F902BD10B5040001F09CF9200010BDAE
:1025E00010B5040001F09CF90020C421490060549A
:1025F000200010BD80B50B0011001A0001F02AFA6E
:1026000001BDFEE7F0B585B005000C00FFF7E2FF65
:102610006069216A4018E169411AC91CA8682A68E2
:10262000801A884202D2280000F0E4FF210028002E
:1026300000F0FCFF611C280000F0F8FF280001F00A
:102640005EF80700201D01F073FA61694618201D2D
:1026500001F06EFA0496039028683E1A01A86A46B3
:1026600001781170049B039A3900280001F065FA83
:1026700028680290310002A801F095F80020694610
:102680000870280000F0FAFF280001F038F8060072
:1026900020001C3001F0A3FA0300E2693100280099
:1026A00001F09FFA05B0F0BDF8B584B004000F004A
:1026B00001F0ABFA38687968091A03290CD2212095
:1026C0002070684643A10A6802600322694601A897
:1026D00001F0A9FA01A85EE000782070386840781F
:1026E0006070022029E00021C943091A01293ED95E
:1026F000401C029000220146201D01F098FA00289B
:1027000017D0201D01F0BBFA0500201D01F0B7FA1B
:1027100061698A1BA9198019401C00F0CBFD201D9E
:1027200001F0ADFA6946097881550299201D01F042
:10273000ABFA201D01F0B1FA01983A687968891A5C
:10274000431C0193884214D2105C00282BD06946A8
:102750000870201D01F0A5FA61694518201D01F0DF
:102760009CFA2E1A6069B042BDD201F09FFA01F0C6
:102770009DFA009718D1212020700021201D01F022
:1027800083FA03A814A10A680260032203A9684619
:1027900001F049FA684603C80A00010020001C3015
:1027A00001F089FA13E000971D468D420FD22000F8
:1027B0001C3000F0A4FF07000098066801F00FFA33
:1027C00072190300390020001C3001F00AFA05B02C
:1027D000F0BD0000424144004241440010B50400F5
:1027E0001C30FFF769FD201D01F072FA200010BDBA
:1027F000010042480068002800D1704780B500F011
:102800004DF801BD70B592B0040016001D0002A87D
:1028100001F066FA16A909780191009533000200CB
:10282000210008A800F01CF802A801F051FA08A93C
:1028300003A8FFF7E7FE03A96846FFF7A7FD684670
:10284000FEF7CBF92078401C20706846FFF734FD76
:1028500003A8FFF731FD08A8FFF7C0FF12B070BD55
:102860007CB504000E00150001F0CFF9201DA84230
:1028700005D00023DB430022290001F045FA079D23
:102880003078607001A920001C3000F0CFFE06A94E
:1028900020001C3000F0CAFE257073BD38B5031D42
:1028A0000200A43200E0143393420BD01C7C002CB5
:1028B000F9D01C784D78AC42F5D11C31181D01F0CF
:1028C00064FA31BD041D0D0000E014349442F8D0C8
:1028D000207C0028F9D10120207468782070A2683B
:1028E0006168201D01F07FFA6068A06029001C313A
:1028F000201DE4E70149086070470000141800201B
:10290000094202D0491E4254FCD17047FEB5060070
:10291000002701970297FEF795FF07245A4DA868F4
:1029200000281FD1F021C90028001830009002466D
:1029300028001830204204D0D21DA243881A0099E2
:1029400041182A606F6050180838A043A86047609B
:102950000760811A5160106050682861E86080202B
:102960000006686130006969014041D100283FD00C
:102970000830204203D0010008312040081A002806
:1029800036D0E968814233D329002E6801E0310056
:1029900016007268824202D23268002AF7D1AA6811
:1029A000964225D00A680832019232680A6071683E
:1029B000091A11290BD332180092224201D072B6A3
:1029C000FEE7321D11507060009800F039F8706811
:1029D000E968091AE960E9682A69914200D9110099
:1029E000296169690143716037600198044002946C
:1029F000FEF72EFF0298002801D072B6FEE701987C
:102A0000FEBD000038B5050019D0083D68681E4CB1
:102A10006169084201D172B6FEE72A68002A01D036
:102A200072B6FEE788436860FEF70CFFE0686968ED
:102A30004018E060280000F003F8FEF709FF31BD00
:102A400030B5114A110000E019000B688342FBD336
:102A50004B68CC18844203D14068181848600800BD
:102A600044680B6805199D4208D19268934204D0CE
:102A70005A68A21842601B6800E01300036081429C
:102A800000D0086030BD00001400002001000831B3
:102A900041600021C943816001000831C16001002B
:102AA0000831016100210160704700210161704718
:102AB00042684A6093688B609368596091600861CE
:102AC0000168491C0160704730B50A680023DB4388
:102AD0009A4201D1036907E00300083300E02300B4
:102AE0005C682568AA42FAD25A684A6091608B6095
:102AF000596008610168491C016030BD0169826844
:102B000043689A60426883685A604A68824201D189
:102B100082684A60002202610868401E08600868F6
:102B20007047FEE710B503000C3B802464049C60F2
:102B300059602F49196020380260203810BD00000C
:102B40002C4800680021C943884201D072B6FEE7D4
:102B500072B6FEE738B528480168FF2212040A431E
:102B600002600168FF2212060A430260234D00241E
:102B70002C60AC6022480068FA218900FEF724FB33
:102B8000401E6860072028601A48046000F0B9FA07
:102B9000002032BD802040051A49086006E0000090
:102BA00072B614480168491C016000BFBFF34F8F23
:102BB000BFF36F8F704700000E480168002901D1F4
:102BC00072B6FEE7491E0160002900D162B6704767
:102BD00010B500F0A7FA0400FEF792FE002803D01B
:102BE0008020400507490860200000F09FFA10BDD2
:102BF000412B00080000002020ED00E010E000E084
:102C00001000002004ED00E0EFF30580002807D15C
:102C10001748EFF31081002904D00168022901D17F
:102C2000052007E00168002903D10121016000208F
:102C300070470020C043704780B5EFF3058000283F
:102C400007D10B48EFF31081002904D00168022955
:102C500001D1052009E00168012905D102210160A7
:102C6000FEF7C0FD002002BD0020C04302BD0000F1
:102C700018180020F0B587B0030008000024049461
:102C8000EFF3058100294BD1EFF31081002903D028
:102C900025490968022943D00593002B40D0130031
:102CA000802218256E46347303A90690002B2CD081
:102CB0001868002800D001009869002803D005009A
:102CC00004D0392D02D21879C00701D5002028E0A0
:102CD0005869002800D08208DF689E68002E0FD057
:102CE0005C2F1DD31B69002B1AD0002818D0029628
:102CF00001930095069B0598FEF766FC04900FE093
:102D0000002F0DD1186900280AD104A80190009560
:102D1000069B92B20598FEF77DFC012800D0049432
:102D2000049807B0F0BD00001818002010B5EFF3AC
:102D30000581002907D1EFF31081002906D007494A
:102D40000968022902D10524E44304E00024002894
:102D500001D0FEF72DFD200010BD00001818002046
:102D6000084B036018005C300860802010607047DA
:102D7000054B036018005C30086080204000106044
:102D800070470000681000200C0C002038B586B099
:102D900000F064F9694CA068002816D0002505955C
:102DA000049503AA04A905A8FFF7E2FF059802907D
:102DB00004980190022000900023039A06A1604825
:102DC000FEF702FC002802D1E56072B6FEE7E06083
:102DD000012007B030BD0000546D722053766300AF
:102DE0007FB505000020002D01D172B6FEE7534CDF
:102DF000A668002E18D000910192029506290DDADE
:102E0000FEF7D7FE022802D1089A002301E0002332
:102E100000226946A068FFF733F805E01A00002396
:102E200069463000FFF7C0F804B070BD7CB50500FE
:102E30000E0042480068C068C468201DFFF75EFEAF
:102E4000E069012814D132002B00A0692918200064
:102E500000F05AF800280BD00020009000232A0030
:102E600000212000FFF7BCFF002801D172B6FEE769
:102E70002000616A884773BDF8B5304F14E0FEF753
:102E8000E7FC0FE078680068461EB641F60F320096
:102E9000611BB868FFF7ECF9FEF7DAFC002801D1F6
:102EA000FFF778FE00F04EF838680024016800292A
:102EB00001D1012602E00026C0680468FEF7C2FCCA
:102EC000684600F00FF8050000980028D7D1002EC2
:102ED000D8D1A542DBD3FEF7BBFC29002000FFF7C9
:102EE000A5FFDFE770B50400FEF700FD05006F4E9B
:102EF0003068854203D200F083F8012000E0002012
:102F000035602060280070BD38B500244160006144
:102F10000A4D8A4206D3D11A8269914206D2011D16
:102F2000686807E09A4203D2994201D3012403E082
:102F3000011D2868FFF7C8FD200032BD00150020E4
:102F4000792E000838B586B0594D04E013001118E9
:102F50002000FFF7D9FF002202A9A868FFF768F850
:102F600000284BD00298002803D505990498039AAD
:102F7000904702980028EED4049C6069002802D093
:102F8000201DFFF7BBFD01A8FFF7ACFF0200029870
:102F9000022809D9001F23D0401E27D0401E012837
:102FA00002D9C01E1CD0D6E7039BA06919182000C7
:102FB000FFF7AAFF0028CED02000616A8847E069A9
:102FC0000128C8D10020009000230398A16942186D
:102FD00000212000FFF704FF0028BCD172B6FEE7F5
:102FE0000398A0610028B1D172B6FEE72C20205CC6
:102FF0000028B0D12000FFF705FDACE707B030BDD9
:103000007CB52B4E05E060602461211D3068FFF720
:103010005BFD3068016800291BD0C0680568C46882
:10302000201DFFF76BFD2000616A8847E0690128D9
:10303000EFD1A06928188542E5D300200090002335
:103040002A0000212000FFF7CBFE0028E1D172B654
:10305000FEE771683160706073BD00001CB5FFF75A
:103060009FFD134CA06800281DD120001030FFF7F1
:103070000DFD20002430FFF709FD200010302060F6
:1030800020002430606000200090230038332200AC
:10309000883210210A20FEF79DFEA060002802D091
:1030A00004A1FFF7D4F8FFF787FD13BD1C1800201B
:1030B00000150020546D72510000000080F3088854
:1030C0007047EFF309801B4B1A6820381060F0C07E
:1030D00044464D4656465F46F0C008B572B6FEF708
:1030E00069FC62B60CBC116808681030F0C8A046D4
:1030F000A946B246BB4680F309882038F0C8184775
:1031000070470C4B19680868203080F3098802204A
:1031100080F31488BFF36F8F3FBCAE4608BC04BC7D
:1031200062B61847EFF3108072B6704780F31088CC
:10313000704700005016002010B5040000BF00BF0B
:10314000200000F005F8040000BF00BF200010BD03
:1031500038B504000F3407218C43A0422BD2082C31
:1031600004D2082402E0083000F049F841490A6816
:10317000100005D1002207E01D68A5420DD2181DE0
:103180000368002BF8D11268081D00E0181D0368C1
:1031900093420CD01D68A542F8D300280BD00268DA
:1031A0001368083BA34208D2536803600FE000F0A5
:1031B00025FE0028D7D1002032BD131903605368C3
:1031C000151D2B5113681B1B05682B6014600068CC
:1031D000002804D04368002B01D0001D00E000202F
:1031E00008601000083032BD10B5040006D000BFE2
:1031F00000BF200000F003F800BF00BF10BD002892
:1032000000D1704770B408380268072A30D95107D6
:103210002ED118494B68002B01D0984203D243604D
:10322000486017E02B005D68002D01D08542F9D37E
:103230001D685E19B0421BD3864203D1A8181860DE
:10324000180007E05C68002C02D0821894420FD36B
:10325000446058604268002A0AD00368C418944247
:1032600006D100240C601168591801605168416052
:1032700070BC70470C18002010B504000A00034809
:103280000178200000F0D0FD200010BD512500087D
:1032900038B505000C00002028606860A860002C8C
:1032A00007D0280000F0C6FD286068600019A860FB
:1032B000012032BD814202D25318984203D300B597
:1032C00000F022F800BD521E03D38B5C8354521EC3
:1032D000FBD2704770B4103A03D378C9103A78C063
:1032E000FBD2530701D318C918C001D508C908C0BB
:1032F000D20704D30B880380891C801C002A01D5C7
:103300000B78037070BC70478B0701D18307E1D045
:10331000124205D00B78491C0370401C521EF9D193
:10332000704710B504002168002908D0A068421A2F
:10333000200000F088FD002020606060A06010BDCB
:10334000002800D1704780B500F082FD01BDFEE786
:1033500010B5040001D1012010BD3D20205C0028E3
:1033600004D13C216054200000F076FD26E03D2190
:10337000415C012901D00120704702213D22815486
:1033800002680121D3680B43D36002681A4B9A424A
:1033900008D08B079A4205D0184B9A4202D0184B9E
:1033A0009A4205D192685207520F062A04D0026849
:1033B00012681143006801600020704702203D211F
:1033C0006054211D206800F0C1F80120462160549E
:1033D0003E2160543F21605440216054412160549B
:1033E000422160544321605444216054452160547B
:1033F0003D216054002010BD002C0140000400401D
:1034000000400140F8B504002068C16800910569DA
:1034100000270226354214D0314012D00221C94380
:103420000161012121778069800703D0200000F02D
:1034300014FD05E0200000F011FD200000F00FFD5C
:103440002777680717D50098400714D5206804210E
:10345000C943016126778069C0218900014003D0FA
:10346000200000F0FAFC05E0200000F0F7FC20004E
:1034700000F0F5FC27770826354216D0009830403A
:1034800013D020680821C943016104212177C06954
:10349000800703D0200000F0E0FC05E0200000F0F1
:1034A000DDFC200000F0DBFC27771020054217D060
:1034B0000099084014D020681021C9430161267783
:1034C000C069C0218900014003D0200000F0C5FC84
:1034D00005E0200000F0C2FC200000F0C0FC2777CF
:1034E000E907C90F0098C207D20F114206D0012088
:1034F000C04321680861200000F03DFD80200542A6
:1035000009D00099084006D08020C0432168086196
:10351000200000F04BFD4020054209D000990840F2
:1035200006D04020C04321680861200000F03FFD24
:103530002020054009D00099084006D02020C04333
:1035400021680861200000F033FDF1BDF0B5066888
:10355000214A224B8024E405214DA84203D0A042F9
:1035600001D0984208D17027BE4337004E683E43D1
:10357000A8420ED0A0420CD098420AD0194B9842D3
:1035800007D0904205D0184B984202D0184B984271
:1035900003D1164B3340CE681E4380239E434B69B4
:1035A000334303608B68C3620B688362A84207D011
:1035B000904205D00C4A904202D00D4A904201D16F
:1035C00009690163012141610269114003D0016968
:1035D000012291430161F0BD004001400004004020
:1035E000002C01400020004000440140FFFCFFFF90
:1035F00000480140F8B504000E0000F01BFC050077
:103600002B0062682168200000F0D3FC216862680A
:10361000571A002904D0A268521A200000F013FCA7
:10362000A819A060E81960602560F1BD38B50400F4
:103630000D0000F0C7FC00280FD020682D1A60682C
:10364000A168884203D10121200000F0C6FC606817
:1036500000280FD02168495D0BE06068A1688842AE
:1036600003D10121200000F0B8FC6068002801D0DF
:10367000297801706068401C606031BD38B5040075
:103680000D0000F09FFC00280FD020682D1A606804
:10369000A168884203D10121200000F09EFC6068EF
:1036A00000280FD02168495D0BE06068A16888425E
:1036B00003D10121200000F090FC6068002801D0B7
:1036C000297801706068401C606031BD30B502002F
:1036D0000B000024002102E001000BE0641C9C426E
:1036E0000BD2105D48400100082548000906F3D5BB
:1036F000072141406D1EF8D1F0E7C8B230BD4068E7
:103700007047F7B51F00BE1A4CD00400009100F0BE
:103710007FFCB04238D2606821680022D243121A7E
:103720005218B24201D200F0C1FA401A81192000A9
:1037300000F072FC01900146200000F07BFB0500C8
:103740002B00009A2168200000F033FC03003A00AF
:103750000299200000F071FC0300626800992000CB
:1037600000F027FC21686268B218561A002904D0BC
:10377000A268521A200000F066FB01982818A06089
:10378000A81960602560F7BD63683A0002992000BF
:1037900000F053FC61688A19009800F057FC6068DB
:1037A00080196060F7BD006840187047F7B51F00CA
:1037B000BE1A4CD00400009100F02AFCB04238D26E
:1037C000606821680022D243121A5218B24201D214
:1037D00000F06CFA401A8119200000F01DFC0190E5
:1037E0000146200000F026FB05002B00009A21680E
:1037F000200000F0DEFB03003A000299200000F0F8
:103800003CFC030062680099200000F0D2FB2168B4
:103810006268B218561A002904D0A268521A200011
:1038200000F011FB01982818A060A81960602560BD
:10383000F7BD63683A000299200000F01EFC616841
:103840008A19009800F002FC606880196060F7BD7A
:1038500038B504000D00AC4206D0FFF762FD32001F
:103860002900200000F012FC200032BD38B5050010
:103870000C00A54205D02868401980472D1DA5429F
:10388000F9D131BDF8B504000F00150000BF00BF2D
:103890001C480168002900D11B491C4A914201D3F0
:1038A000002601E00E000C31016000BF00BF002EB9
:1038B00001D10120F2BD37607460B5600020F2BD17
:1038C00080B51049124800F001F801BDF8B50D6847
:1038D0002E0002D1F1BD884710E007000C0001E086
:1038E00005002E00BE42F5D00C3E71680800F9D0EC
:1038F0000020706030680028EDD08847206885423D
:10390000F0D0EDE72018002030180020D419002056
:103910003018002000210160416081607047FEE79F
:1039200038B505000C000748009008233022280015
:10393000FEF722FEC02040002058C02149006850F8
:10394000280032BD854A0008F8B5002504000F00A4
:10395000160000E06D1CC020400021588D4213D29B
:10396000302068430090009821580029F2D0380098
:1039700000F097FB0028EDD0310020000830009ABD
:10398000801800F0A9FBF1BD3800082914D200F01E
:10399000BDFBC021490065182968302251436050A1
:1039A0003100200008302A6830235A43801800F084
:1039B00093FB2868401C2860F1BD70B50025040009
:1039C0000E0000E06D1CC0204000205885420BD244
:1039D0003020684321580029F4D0300000F061FB0A
:1039E0000028EFD0012070BD002070BDFCB583B071
:1039F000170000240600009100E0641CC020400075
:103A00003058844223D23020604335182968002979
:103A1000F3D0009800F045FB0028EED0E86A0028BB
:103A200015D028000830416A002901D100F03EF984
:103A3000049C3A0068460B689B68984769462000DA
:103A4000FFF706FF6846FEF737FC012000E0002084
:103A500005B0F0BDF8B586B004000E00170000F008
:103A6000D4F870786070201D311D884204D0002386
:103A7000DB43002200F048F9212530780B280BD0D9
:103A8000257002A827A10A680260032202A96846DD
:103A900000F0C9F8684610E0311D3800FFF78DFFCF
:103AA000002812D1257001A81FA10A680260042213
:103AB00001A902A800F0B7F802A803C80A00010093
:103AC00020001C3000F0F7F829E003A8FEF782FD83
:103AD000030032001C32311D3800FFF787FF002839
:103AE00013D12570684600BF10A10A680260032246
:103AF000694601A800F097F801A803C80A00010070
:103B000020001C3000F0D7F806E01620207003A932
:103B100020001C30FFF79CFE03A8FEF7CDFB07B08A
:103B2000F0BD0000424144004E4F54464552520001
:103B30004169102900D300687047F7B51F00BE1A0D
:103B40004CD00400009100F063FAB04238D26068B3
:103B500021680022D243121A5218B24201D200F058
:103B6000A5F8401A8119200000F056FA019001468C
:103B7000200000F05FF905002B00009A216820006A
:103B800000F017FA03003A000299200000F0C3FA8F
:103B9000030062680099200000F00BFA2168626857
:103BA000B218561A002904D0A268521A200000F058
:103BB0004AF901982818A060A81960602560F7BD2F
:103BC00063683A000299200000F0A5FA61688A193A
:103BD000009800F03BFA606880196060F7BD4068AB
:103BE00070477FB504002068081A039001A86E464C
:103BF000057835702000FFF784FD20680290039956
:103C000002A8FFF7D0FD04B070BD10B5040000207D
:103C100020706070201D00F089FA20001C30FEF733
:103C2000D9FC200010BD016089184160704710B5B3
:103C30000C000021C9438C4201D100F037F84169E2
:103C4000A14208D20269210000F07CFA200000D0D5
:103C50000120C0B210BD002A0AD0102C08D2016980
:103C600022008C4200D90A00012100F0A7FAEDE7FA
:103C7000002CEBD1002100F007F80020E9E74169B2
:103C8000102900D30068704738B505000C00FFF715
:103C9000F6FF2C610021015531BD80B500F001F81F
:103CA00002BD4169102900D30068704780B501202A
:103CB00000F09EFA01BD10B5040008001100226852
:103CC00062600A000100200000F09CFA200010BD94
:103CD00010B504000022012100F070FA200010BD90
:103CE00038B504000D00694600F0B2FA0022002148
:103CF000200000F063FA0023DB43002229002000AB
:103D000000F002F8200032BDF8B50C001500216962
:103D1000A9420BD30600481B834200D903001F00B1
:103D2000A6421AD1E9193069884201D2FFF7BEFFD5
:103D30003000FFF7A9FF3069854201D300211FE061
:103D4000002D20D03000FFF79AFF31694C1B220074
:103D50004119FFF7AFFA210012E0002239003000CC
:103D6000FFF765FF00280ED06069102800D3246893
:103D70003000FFF784FF3A00611900F06FFA390054
:103D80003000FFF781FF3000F2BD70B504000D0078
:103D90006668B54216D221688D4213D3681A0C2189
:103DA000FDF7FEF90500A068864203D1012120003D
:103DB00000F05AFA6068002811D021680C2255439F
:103DC00049190AE0A068864203D10121200000F0D1
:103DD0004BFA6068002802D02900FDF7A7FF606851
:103DE0000C30606070BD38B50C00150003E0200099
:103DF000FEF762FA0C34AC42F9D131BD07490868CC
:103E0000002801D000207047054807229043086031
:103E100004499143091A0160704700BF2C18002023
:103E2000DF1D0020D81F002010B50400FFF772FD31
:103E3000200010BD80B5002901D1002002BD08007E
:103E400000F042FA02BD80B50800FFF779FA01BD23
:103E500080B5FFF7C9F901BD7047704770477047DB
:103E600038B500F045FA00F03FF88020800246495E
:103E70000A6802430A600968084000900098434CB1
:103E800043482060E120400260600020A060E060C4
:103E900020610C216161A061E0612062606220000C
:103EA000FCF70CF9002801D000F07EF8FEF7ACFE1C
:103EB00025008835374C220000213748FEF7DAFE0E
:103EC00028602200243200213448FEF7D3FE6860C7
:103ED0002200483200213248FEF7CCFEA860FEF7EF
:103EE000ABFE00F03AFAFEE730B595B03022002183
:103EF00009A8FDF789FA102200216846FDF784FA27
:103F00001422002104A8FDF77FFA02200990012461
:103F10000C9410200D900025119509A8FCF792FE35
:103F2000002801D000F040F807200090019502958C
:103F3000039500216846FDF74BF8002801D000F0FA
:103F400033F80494069504A800F062FA002801D022
:103F500000F02AF815B030BD80B50120FEF7E6FE6E
:103F6000FBE780B50120FEF7E1FEFBE780B501200D
:103F7000FEF7DCFEFBE700680A49884200D0704784
:103F800080B500F0CBFA01BD14100240C416002029
:103F900000380140BC470008593F0008633F000853
:103FA0006D3F00080010004072B6FEE77047704792
:103FB000704738B51C00551A2A002000FFF77AF91F
:103FC000601932BD4268914205D200688142804149
:103FD000C043C00F70470020704738B505000C0083
:103FE00000F016F8A04212D2686829680022D24375
:103FF000121A5218A24201D2FFF758FE401A0119B4
:10400000280000F009F801002800FFF7F3FA31BD9D
:1040100081684068081A704782680068101A420870
:104020000023DB439B1A834201D2002000E080186A
:10403000814200D201000800704738B51C00551AB3
:104040002A002000FFF736F9601932BD70B5040070
:104050000E001500B44201D1280070BDAE420BD055
:1040600000F064FA2900300000F060FA2900200016
:1040700000F05CFAA81B201870BD38B51C00551A5A
:104080002A002000FFF716F9601932BD0A680260A5
:104090004A6842608A6882600020086048608860E0
:1040A0007047F2B50600084600F04CFA0700346984
:1040B0002500BC4200D93D00300000F027F82A005E
:1040C000009900F047FA002804D1BC4202D301D184
:1040D0000120F2BD0020F2BD38B504000D00AC4255
:1040E00012D000F046FA686A00280DD0A84208D124
:1040F00021000268526890476062280000F039FA97
:1041000002E0606200206862200032BD416910292F
:1041100000D300687047180005E0002801D00B7834
:104120000370401C491C9142F7D170471CB5040034
:10413000694600F08DF800220021200000F03EF8D2
:10414000200016BDF8B5060017000F250D4300200E
:10415000C043854201D10D0011E07469280003219C
:10416000FDF732F86108884209D260080121C9438D
:10417000091AA14201D3251801E00125ED43681C6D
:1041800001D1002402E000F09FF80400002F07D0C6
:104190003000FFF774FD3A000100200000F05EF8E7
:1041A00000220121300000F009F8002E00D0346018
:1041B000756139003000FFF767FDF1BD70B504008F
:1041C000150000290CD060690F2809D92668002D38
:1041D00003D03100200000F041F83000FFF7B0F8C4
:1041E0000F20606129002000FFF74EFD70BDFEE743
:1041F00080B500BF00BF024A11001820ABBEFBE72C
:1042000026000200F8B504000E00951B2F00A068E0
:104210002168401AB84212D241080022D243521AF1
:10422000824201D2002000E04018874200D20700FD
:104230002000FFF776F839002000FFF729F82768FB
:104240002A0031003800FFF735F878196060F1BDB9
:1042500010B5040000F09DF9200010BD10B5040059
:10426000FFF752F8200010BDF8B505000E000C272E
:10427000A8686968401A0C21FCF792FFB04220D26E
:10428000104C280000F089F9201AB04201D2FFF743
:104290000DFD280000F081F98619A8682968401AE8
:1042A0000C21FCF77DFF4108621A824201D20020F6
:1042B00000E04018864200D206003100280000F0DD
:1042C00075F9F1BD5555551510B5040001E000F024
:1042D000ADF92000FEF730FF002805D10348006843
:1042E0000028F4D08047F4E710BD00BF2818002054
:1042F00080B50648016810220A4302600320FDF7DA
:10430000E5FFFCF7B3FB002002BD000000200240E7
:104310001FB5040008684968091A01290AD86846C7
:10432000002101700122694601A8FFF77CFC00AB67
:104330005B1C0AE001784078081869468870012201
:10434000891C01A8FFF76FFC6B4601A803C80A008F
:104350000100200000F06EF91FBDF8B5F2B010A802
:1043600000F07CF923A1684600F088F9224906A8EC
:1043700000F0BEF90200694610A8FFF7E5FA06A8AA
:1043800000F0C7F96846FFF7A3FC1C4C1C4E012542
:104390001C4F2078002808D1257010A93000FEF7A6
:1043A0001FF93A001849FEF70EF96078002807D186
:1043B0006570201D00F0BEF93A001449FEF703F9BC
:1043C000201DFEF797FA3000FCF7B0FF09A101A805
:1043D00000F054F90B210091042303220100201D59
:1043E000FEF710FA01A8FFF773FC10A800F0B0F96F
:1043F00073B0F0BD73756D0011430008C812002042
:1044000070130020241800206D4B00086D4A00082E
:10441000F8B504003B4D2068C00356D5002000903D
:10442000802040052968014008D12968014329609E
:10443000296808400090009801200090324F3868A9
:10444000C00510D43868A90D01433960FCF7DAFEC5
:1044500006003868C00506D4FCF7D4FE801B65282A
:10446000F7D30320F2BDC020800069680140274FC8
:1044700000291ED06268104081421AD06868384016
:104480006968802252020A436A606968204A0A40C9
:104490006A606860C0070CD5FCF7B4FE0600686867
:1044A000800706D4FCF7AEFE801B1A498842F6D37B
:1044B000D7E768680740606838436860009800285C
:1044C00003D028681449014029602078C00705D529
:1044D000686903218843A1680143696120788006E7
:1044E00005D5686910218843E16801436961206846
:1044F000400505D568694021884321690143696108
:104500000020F2BD1C10024000700040FFFCFFFFC5
:10451000FFFFFEFF89130000FFFFFFEF0248416825
:1045200002788918416070470400002004E0027896
:104530000B7803700A70401C884202D0491E8842E2
:10454000F5D17047431C0178401C0942FBD1C01AC9
:104550007047FEE7A446521E08D303780C78401C2F
:10456000491CA342F7D0181B6446704700206446DC
:10457000704738B50400606A002809D00025A042C1
:1045800001D1002100E001210268D26890476562F4
:1045900031BD002101614161704700B5416800688B
:1045A000081A0C21FCF7FCFD00BDFEE7F3B581B055
:1045B00004000846002801D1002709E01A49884272
:1045C00001D3FFF773FB0C214843FFF77DFE070083
:1045D000009466683D00246807E0002D03D02100A8
:1045E000280000F0C1F80C350C34B442F5D1009825
:1045F000FFF7D3FF040000980168002906D0426845
:10460000FFF7F1FB00980068FEF79AFE02980C2174
:1046100048433818009988600C20444338190099A1
:10462000486000980760F7BD5655551580B5FFF7EF
:104630003DFB01BDD0B504000E0017001A0006486E
:1046400001782000FFF7F0FB3A003100200000F075
:1046500097F82000D0BD00BF844B000810B50400BF
:10466000082330220449FDF774FF0020C0214900CF
:104670006050200010BD00BFFF11000870B504009D
:104680000E00FFF786FF002200212000FFF796FDB5
:104690003000FFF757FF0500002E15D02000FFF770
:1046A000EEFA864210D32000FFF7E9FA216940189C
:1046B000864209D22000FFF7E2FA2B00321A2100CD
:1046C0002000FFF721FB11E0002229002000FFF766
:1046D000AEFA00280AD02000FFF7D1FA2A003100F4
:1046E000FFF7BCFD29002000FFF7CEFA200070BDC7
:1046F00013B50400002060620198002807D0002C48
:1047000004D06A4601A9200000F03EF8646220004F
:1047100016BD38B50400606A002809D00025A04203
:1047200001D1002100E001210268D2689047656252
:10473000200032BD10B50400002020700823142290
:104740000249201DFDF705FF200010BD074B0008A2
:1047500010B50400082330220249FDF725FF200090
:1047600010BD00BFF94A000838B504000D00FEF77F
:1047700083FD320029002000FFF788FC200032BDB5
:1047800080B500F009F801BD024A02600968416085
:10479000704700BFF0480008F8B504000E00951BF4
:1047A0002900FEF775FD002807D027682A00310090
:1047B0003800FEF77FFD78196060F1BD304B0008CE
:1047C00000000000000000000000000000000000E9
:1047D00000020000180000000000000000000000BF
:1047E0003C4B00080000000000000000000000003A
:1047F000000000000002000018000000000000009F
:1048000000000000484B000800000000000000000D
:10481000000000000000000000020000180000007E
:10482000000000000000000070B40123002413E029
:104830000168001D194202D04D466918491E0C60DE
:10484000091D121F042AFAD20D00960701D50C800B
:10485000AD1C1A4000D02C700268001D002AE7D160
:1048600070BC704730B401220EE00368C31844687E
:104870000830144202D04D462C19641E1D68256074
:104880001B1D241D091FF9D10168001D0029ECD151
:1048900030BC704770B504002568002D0ED06668E6
:1048A00003E02800FDF708FD0C35B542F9D120687A
:1048B000FEF746FD002020606060A06070BDFEE74E
:1048C00010B5074979441831064C7C44163404E08D
:1048D000081D0A68891888470100A142F8D110BD57
:1048E00084000000A800000000000000000000009C
:1048F00031490008B14A0008614B0008254A000808
:104900009F4B0008000000000000000010B50400EC
:1049100000206062486A002808D0884201D1210046
:1049200000E000210268126890476062200010BD1C
:1049300038B505000C0003D10820FFF7C5FC0400C2
:10494000002C04D02A1D291D200000F003F82000AF
:1049500032BDFEE7024A026009684160704700BF4D
:10496000F0480008C5FEFFFF1C18000014000020DE
:1049700000000000F1FEFFFF1400000058010000DD
:10498000000000200000000025000000FEE7FEE718
:1049900080B50448FEF736FD01BD80B50248FBF73F
:1049A000F0FB01BD58170020C416002010B504000C
:1049B000044979440E31044878440C30FEF756FF20
:1049C000200010BDC0010000B801000000F00DF88B
:1049D000002801D0FFF774FF00BF00BF002000BF18
:1049E00000BFFFF73DFA00F002F80120704780B5E4
:1049F00000F002F801BDFEE70746FEF761FF38460A
:104A0000FFF7F6FBFBE7FEE70548014603B46846FF
:104A100080F3098800BF00BF00BF00BFFFF7D6FFCB
:104A2000A5EDF5FE38B505000C0029680969884731
:104A3000002C02D02800FEF783FC31BD1CB5040019
:104A40006A4603480178200000F004F8200016BDF3
:104A5000854B000810B5040000F002F8200010BDDE
:104A600000210160416081607047FEE710B50400DD
:104A7000082314220249201DFDF796FD200010BDD9
:104A8000154B000810B504000868206008312000AC
:104A90000830FFF73BFF200010BDFEE77047000025
:104AA00000000000000000000102030406070809DE
:104AB00010B50C0004D0021D011D200000F002F80A
:104AC000200010BD024A026009684160704700BFC3
:104AD000F0480008AAAAAAAA0100000000000000ED
:104AE0000400000000127A00014880470148004796
:104AF0009D4A0008094A000810B504000830FFF775
:104B000008FE200010BD10B50400201DFFF796FF21
:104B1000200010BD10B50400201D00F002F8200098
:104B200010BD10B50400FFF7B5FE200010BDFEE774
:104B300064656661756C745461736B00536572765D
:104B400065725F5461736B00436C69656E745F548A
:104B500061736B0010B50400FDF7AEFB200010BDC3
:104B600080B50B0011005A68904701BD10B50400D4
:104B7000FFF7EEFD200010BD00000000010203045D
:104B800091C6FFFF0000FEE7FEE7FEE7FEE7FEE757
:104B9000FEE7FEE7FEE7FEE7FEE7FEE7FEE770471B
:044BA0000000000011
:0400000508004A099C
:00000001FF
